:020000040000fa
:080000000001040000000000f3
:020000040000fa
:100008009401000094010000940100009401000094
:100018009401000094010000940100009401000084
:100028009401000094010000940100009405000070
:100038009401000094010000b2050000d005000002
:100048009401000024050000940100003805000018
:100058009401000094010000940100009401000044
:100068009401000094010000940100009401000034
:1000780094010000e80500000c060000940100004f
:10008800580600009401000094010000940100004b
:100098009401000094010000940100009401000004
:1000a80094010000940100009401000094010000f4
:1000b80094010000940100009401000094010000e4
:1000c80094010000940100009401000094010000d4
:1000d80094010000940100009401000094010000c4
:1000e80094010000940100009401000094010000b4
:0800f8009401000094010000d6
:020000040000fa
:100108009401000094010000940100009401000093
:100118009401000094010000940100009401000083
:10012800940100009401000094010000940500006f
:100138009401000094010000b2050000d005000001
:100148009401000024050000940100003805000017
:100158009401000094010000940100009401000043
:100168009401000094010000940100009401000033
:1001780094010000e80500000c060000940100004e
:10018800580600009401000094010000940100004a
:100198009401000094010000940100009401000003
:1001a80094010000940100009401000094010000f3
:1001b80094010000940100009401000094010000e3
:1001c80094010000940100009401000094010000d3
:1001d80094010000940100009401000094010000c3
:1001e80094010000940100009401000094010000b3
:0801f8009401000094010000d5
:020000040000fa
:10020000ef8320000eff20000e0188000000000098
:1002100000012000200288000c000700c0ee200032
:100220000100200011000700000020000000e00095
:10023000020032000000020000000000c2060200be
:10024000000000000040da000000fe004440a90069
:10025000e00020000000e000030032000000200069
:10026000a00188004440a800000006009101880019
:10027000800078000000eb0015003700e2804000ad
:1002800032a0b4009101ba00e280400032a0b40074
:100290009102ba00e280400032a0b4000002eb00fc
:1002a000472bde00f507b200602ce10004003a00a5
:1002b0000059eb008301e900fdff3e000400370018
:1002c0006128e100010032000082eb000400070019
:1002d0001101ba000200e000e8ff3a000000060049
:1002e0003159ba008301e9000c0032002159ba00eb
:1002f0008301e900080032000400e00003003a0036
:10030000e280400032a0b400f5ff370011d9ba00f6
:100310008301e900faff3a008100e800e180400033
:1003200032a0b400000006000040da000000fe0029
:1003300003f0a200889fbe008a9fbe008c1f780039
:1003400000010700070133006450e1004f00320054
:100350006420e1005200320003826c0007003b0081
:100360000905d0000306d000820f54000c065d0082
:10037000020039000200320089017800030678008b
:100380008582550004003d000003fd008103fd004f
:100390008502ea008b854200840f720002003b0058
:1003a00060001000e08018006011b8000005eb004c
:1003b0007a28e1000a00390006007800c75ddd00f8
:1003c000f707b200878075002d0037008281710029
:1003d0000a017800610560008180d1000080d300af
:1003e0008502e900f9ff3b000604400087844800cd
:1003f00002003b0060041400e0841c000988a30094
:10040000070032008a8171008281710061016400fd
:100410008904d1000884d3008b05e8001700370059
:100420000978a30013003a000b00e0001300340029
:100430008b05e9000804440089844c000a447400d8
:100440000978a3000d003a000b00e000070034001b
:100450008b05e9000804440089844c0001003a003f
:100460000b0020000978a300f7ff32000001eb0029
:1004700002003700828171000a01780076000700cf
:100480000cf0a70001f0a000bf0037006420e100dd
:1004900002003a00838f6c00bf0033000801be00e9
:1004a0000200be00b8003700889fbe008a9fbe00d1
:1004b0008c1f7800a3000700aa00330003866c009d
:1004c0006450e1002e0032006420e100330032006d
:1004d0006150e1002f0032006120e1003100320064
:1004e00085855500eb07b0000900200008042000b6
:1004f000050037000804440089844c000a003100dc
:100500000603430087834b000001530081815b0099
:10051000f8ff33000203be000800a00008044400f6
:1005200089844c00f6ff3900c639dd008301730071
:1005300001003200130020008904d1000884d30098
:100540000998a300050032000800a7000300a000de
:100550008904d1000884d3008b05e8008904d10008
:100560000884d3000001eb000281d2003a000700aa
:1005700001f0a1000cf0a70001f0a00082003700fc
:100580006420e100840032000801be000200be00c9
:10059000f7ff37006120e1007f0032006000b80003
:1005a000f3ff37000000200001f82700f0ff3700bc
:1005b00014002000af003700f4ff2f00ad0037001b
:1005c0000001be004a0007000470a70003f0a1006c
:1005d0006509b100160032000d0035006828e10001
:1005e00006003500f0ff2f00f1ff27000300e000b8
:1005f00013003b000100280000000500000040003f
:10060000818048008502e900fcff3a0008003700bd
:10061000f88f420002003c008000eb000000050063
:100620008100d1000080d3008502e800fcff3a0081
:100630000300e00002003b0060001000e0801800b2
:10064000000006004f89de0082017800a400370018
:100650006011b800b20037008100200061805500b1
:100660000b003d000b00200061fe2f000100e100a7
:100670001d00340082817100610164008904d10091
:100680000884d3000000e800faff3a00710020005f
:100690006100640003007000020060000900320085
:1006a00061044400e0844c000988a5000500320084
:1006b0008b05e8006808e10002003a008904d100d7
:1006c0000884d300f20f20000258e10005003d002d
:1006d000c75ddd00f907b200898075000800780069
:1006e000000006000bf827008b00780000000500d2
:1006f000c70ade00f107b200f50fb20008003200b1
:10070000e1cf4200020032000170a0002400050089
:10071000810f70000100320004080500440005004c
:10072000810f700002003a00140005008502e90004
:100730000000400081c04800fcff3b000170a000a9
:10074000240005000004be00e9ff07000003be000e
:100750000405be000200be00e5ff0700844f7500df
:10076000000006000200be006450e10005003600f3
:100770006420e100020036000968a30001003a008d
:100780000800be000160a0004f0678004f05be00c3
:100790004f04be0000000600f0ff2f00f1ff27000d
:1007a000f9ff3700889fbe008a9fbe008c1f78002b
:1007b000e4ff0700ebff330003866c006450e100a8
:1007c000240032006420e100270032006150e10083
:1007d000220032006120e100210032008b854200be
:1007e000eb07b1000134b800003ab8000804420039
:1007f00089844a00013ab8000030b800888040007f
:1008000009014a00040033000000400081804800d4
:10081000020149008b05e900c909dd008301700070
:100820000100320013002000c814de004814dd006f
:100830004709de001200b200c808de00088470001c
:1008400085ff070001f0a1000cf0a70001f0a00057
:10085000cdff37006120e100cfff32000801be006c
:100860000200be00f7ff37006150e100fcff3a00d4
:10087000c9ff3700889fbe008a9fbe00841f780092
:10088000b0ff07004f00780011003300f0ff2f0089
:10089000838f6c0006003b00040565000a00a7007a
:1008a0000800370009f0a6001000200008003700fb
:1008b000820f5400838f5c00030039001000200079
:1008c00001003e000000200009f0a7000000ea003f
:1008d0004f05be004f04be000000e000000006000f
:1008e000881f7800030478000300e00007003d0043
:1008f00060001000e080180060011900e08119001c
:1009000002003b0001f02d00030037000400070047
:1009100008f0a70001f0a0004f04780000000600d6
:10092000889fbe008a9fbe00008270000402710092
:1009300004827100260032000004be000200be00e6
:100940006011b8006b092000950220000182cf00e1
:100950000a0039000541b1000082cf0007003900cc
:100960000541b1000982cf00040039000541b10002
:100970000882cf00010039000541b1000542520054
:10098000120032000a003b008281710061016400a4
:100990008100d1000080d3008984d3000884d30073
:1009a0008b05e8000442e800f7ff3a000700370033
:1009b0000804440089844c000000480081804800fd
:1009c0008b05e9000442e900f9ff3a0022ff070025
:1009d0004f05be004f04be00000006000002780074
:1009e00002003700015a78000201e900e00f5100cf
:0809f000fcff3a0000000600c4
:020000040000fa
:1009f800577200006974000065200000535400001d
:0c0a080041520000542e000000000000cd
:020000040000fa
:100a14000000fa0004042000a41088000d42a9007c
:100a24008d20a80075108000c4ff2f00048262008e
:100a3400741088000de2a8000f42a8000080fa009c
:100a4400000006003400f800881f78000800200029
:100a5400a80188004f0478000000fa008520a9004e
:100a64000080fa003400f900004006003600f80067
:100a7400809fbe00829fbe00849fbe00869fbe00f2
:100a84003400f80000002000a00188000000fa00f3
:100a940004148000050020000400be00ebfe0700e3
:100aa4000002be0084408800954088001414800031
:100ab400050020000400be00e4fe07000002be00a2
:100ac400a4408800b540880024148000050020005c
:100ad4000400be00ddfe07000002be00c440880022
:100ae400d540880034148000050020000400be00b6
:100af400d6fe07000002be00e4408800f5408800ee
:100b04008560a9000080fa003400f9004f03be009c
:100b14004f02be004f01be004f00be003600f90078
:100b240000400600841f78003400f8000400200010
:100b3400a40188000000fa000002eb000408880009
:100b4400144180000402e800144188008460a90074
:100b54000080fa003400f9004f02780000400600db
:100b6400841f78003400f80004002000a4018800e9
:100b74000000fa000002eb00340888000441800001
:100b84000402e8000441880084c0a9000080fa003f
:100b94003400f9004f02780000400600841f7800fa
:100ba4003400f80004002000a40188000000fa00ca
:100bb4000002eb005408880084e0a9000080fa00d9
:100bc4003400f9004f02780000400600801f7800ce
:100bd400841f78003400f80000002000a001880081
:100be4000000fa000002eb00a4088800c8a2a900d3
:100bf40014c0b300044078003ae8b70086a0a90006
:100c04000080fa003400f9004f0278004f007800a9
:100c140000400600801f7800841f78003400f8002c
:100c240000002000a00188000000fa000002eb0090
:100c3400c4088800c8e2a90014c0b30004407800c6
:100c44003be8b70086c0a9000080fa003400f90030
:100c54004f0278004f007800004006000200fa00be
:100c6400000f7800000000007510800004102000c0
:100c740004826200e00f5200fbff32006410800027
:100c840066026200e60f520003003a001e0278007a
:100c94008410880003003700f40f20001e02620055
:100ca400841088000080fa0000000600801f78008d
:100cb400849fbe00861f78003400f80000002000e6
:100cc400a00188000000fa008700a900e410800059
:100cd400044278000440780025e8b70054822000dc
:100ce40014427800e04f52001f003200c4822000fa
:100cf400144278000483fb005482200014427800dc
:100d04006582200085024300844a78000042eb009b
:100d14000440780025e8b700c4822000144278001b
:100d2400e44f52000d003e00c482200014427800bb
:100d34000442e800044078002ce8b700c482200094
:100d4400144278008482fb00648220008482420082
:100d54000042eb00844a7800030037000042eb00b5
:100d6400044078002ce8b7000080fa003400f90051
:100d74004f0378004f02be004f0078000040060089
:100d84000400fa00881f7800000f7800110798000b
:100d9400a802a900a822a900a842a900a862a90043
:100da400c602a800c622a800c642a800c662a800bf
:100db40092030700cc030700d6030700e0030700f3
:100dc400ee030700f803070047020700c10207000b
:100dd400300307000d0207003a020700b4042000a4
:100de40074418800744180000400780043030700c4
:100df400e4042000844188008441800004007800d9
:100e04005e030700a882a800a8a2a800a8c2a800a0
:100e1400a8e2a800a922a800a942a800a962a800e3
:100e2400a982a800620020008000eb0060822000fc
:100e3400e9fe07000042eb00044078002ce8b7000c
:100e4400c04f2800c3020700a1e2a8000102070066
:100e54000500370000000000030037000000000018
:100e64000100370000000000aa0107006b01070021
:100e740082000700b4418000c541800018c0b3005f
:100e840002002000031224000400be00c7fd070076
:100e940000027800e00f5200010035000044eb002e
:100ea400e04f540026003200b4418000c541800068
:100eb40018c0b3006011b8000400be00bdfd0700f7
:100ec40000027800e00f520001003c000044eb00f7
:100ed400e04f54001a00320094418000a541800084
:100ee40018c0b30002002000031224000400be0056
:100ef400aefd070000027800e00f5200010035004b
:100f04000044eb00e04f54000d0032009441800097
:100f1400a541800018c0b3006011b8000400be00f1
:100f2400a4fd070000027800e00f520001003c001d
:100f34000044eb00e04f540001003200da010700e6
:100f4400b4418000c541800018c0b30002002000f5
:100f5400031224000400be0094fd07000002780080
:100f6400e00f5200010035000044eb00e04f540054
:100f74001a003200b4418000c541800018c0b3009b
:100f84006011b8000400be008afd0700000278006a
:100f9400e00f520001003c000044eb00e04f54001d
:100fa4000e00320094418000a541800018c0b300b7
:100fb40002002000031224000400be007dfd07008f
:100fc40000027800e00f520001003c000044eb00f6
:100fd400e04f5400010032009e010700b44180003c
:100fe400c541800018c0b300020020000312240091
:100ff4000400be006ffd070000027800e00f5200fd
:1010040001003c000044eb00e04f540091ff32002b
:1010140094418000a541800018c0b3000200200064
:10102400031224000400be0060fd070000027800e3
:10103400e00f5200010035000044eb00e04f540083
:1010440086ff320094418000a541800018c0b3009f
:101054006011b8000400be0056fd070000027800cd
:10106400e00f520001003c000044eb00e04f54004c
:101074007cff32007e0107007bff37000000fa008e
:10108400889fbe008a1f7800a4408000b54080007d
:1010940018c0b30002002800435524000400be0019
:1010a40044fd070000027800e00f520001003c00fc
:1010b4000044eb00e04f540022003200a6408000c0
:1010c400b7408000c4408000d540800018c0b30001
:1010d4000401be000600be0036fd070000027800d1
:1010e400e00f520001003c000044eb00e04f5400cc
:1010f40014003200a6408000b7408000e440800025
:10110400f540800018c0b3000401be000600be0014
:1011140028fd070000027800e00f520001003c00a7
:101124000044eb00e04f5400060032005001070079
:1011340004052000744188000405200084418800cf
:1011440094003700844080009540800018c0b300ac
:1011540002002800b34b24000400be0015fd070064
:1011640000027800e00f520001003c000044eb0054
:10117400e04f54002c0032008840800099408000e9
:10118400c4408000d540800002002000f3422400c7
:101194000400be0065fc07000002be001ac0b300d4
:1011a4000401be000800be0002fd07000002780032
:1011b400e00f520001003c000045eb00e04f5500f9
:1011c400190032008840800099408000e44080008b
:1011d400f540800002002000f34224000400be0019
:1011e40052fc07000002be001ac0b3000401be0096
:1011f4000800be00effc070000027800e00f520078
:1012040001003c000045eb00e04f550006003200b1
:101214001001070004052000744188000405200023
:10122400844188005b003700c4408000d5408000c2
:1012340018c0b30002002400e35424000400be00dc
:10124400dcfc070000027800e00f520001003c00c3
:101254000044eb00e04f540021003200c6408000ff
:10126400d7408000844080009540800018c0b300bf
:101274000401be000600be00cefc07000002780098
:10128400e00f520001003c000044eb00e04f54002a
:1012940013003200c6408000d7408000a440800084
:1012a400b540800018c0b3000401be000600be00b3
:1012b400c0fc070000027800e00f520001003c006f
:1012c4000044eb00e04f54000500320024032000ea
:1012d4007441880004052000844188002d003700f3
:1012e400e4408000f540800018c0b30002002400f0
:1012f400e35424000400be00aefc070000027800a2
:10130400e00f520001003c000044eb00e04f5400a9
:1013140020003200e6408000f740800084408000d6
:101324009540800018c0b3000401be000600be0052
:10133400a0fc070000027800e00f520001003c000e
:101344000044eb00e04f540012003200e6408000fd
:10135400f7408000a4408000b540800018c0b3006e
:101364000401be000600be0092fc070000027800e3
:10137400e00f520001003c000044eb00e04f540039
:101384000400320004052000744188002403200076
:10139400844188007441800004007800d70107006c
:1013a4008441800004007800f40107004f057800b0
:1013b4004f04be000080fa00000006000200fa009c
:1013c400000f78000002eb001441880005e1a8003a
:1013d40000000000144180009e0f5200fdff350004
:1013e40005e1a9000080fa00000006000200fa00ee
:1013f400000f78000002eb000441880011e1a8000e
:1014040000000000044180009e0f5200fdff3500e3
:1014140011e1a9000080fa00000006000200fa00b1
:10142400ca82a80030002000f0ff0700ca82a90089
:1014340030002000edff070000000000451680008a
:101444000402200004826200e00f5200fbff32001d
:101454000002eb00a408880086a0a9001fe1a800f0
:10146400000000004516800004022000048262008f
:10147400e00f5200fbff3a001fe1a900a483200003
:1014840014427800e14f520006003a00841a260004
:10149400040f78000042eb00044078003ae8b700fb
:1014a40002003700a4088000040f78000002eb005b
:1014b400a40888001e027800050020000400be0075
:1014c40062fc07000002be00d2cc2c00c3dc230067
:1014d4000400be00b2fc07000002be0002002000af
:1014e400030024000400be00eefb07000002be005f
:1014f40082e22700c3d023000400be00a8fc07003a
:101504000002be0094418800a54188000080fa00d2
:10151400000006000200fa00cac2a8003000200041
:10152400b2ff0700cac2a90030002000afff0700c5
:1015340000000000451680000408200004826200b8
:10154400e00f5200fbff32000002eb00c4088800e9
:1015540086c0a90021e1a800000000004516800013
:101564000408200004826200e00f5200fbff3a00ee
:1015740021e1a900b483200014427800e14f520015
:1015840006003a00841a2600040f78000042eb009b
:10159400044078003be8b70002003700c40880002c
:1015a400040f78000002eb00c40888001e027800d3
:1015b400050020000400be0024fc07000002be0059
:1015c400d2cc2c00c3dc23000400be0074fc070052
:1015d4000002be0002002000030024000400be003c
:1015e400b0fb07000002be0082e22700c3d0230044
:1015f4000400be006afc07000002be00b44188007b
:10160400c54188000080fa00000006000000fa00ce
:10161400c722a900c742a900c762a900c782a900be
:10162400a922a800a942a800a962a800a982a8002a
:101634000080fa00000006000000fa00cb22a90096
:10164400cb42a900cb82a900cb62a9000080fa009a
:10165400000006000000fa00cb22a800cb42a9003b
:10166400cb82a900cb62a8000080fa00000006002b
:101674000000fa00cb22a900cb42a800cb82a8002c
:10168400cb62a9000080fa00000006000000fa0006
:10169400cb22a900cb42a900cb82a800cb62a9002f
:1016a4000080fa00000006000000fa00cb22a90026
:1016b400cb42a800cb82a900cb62a9000080fa002b
:1016c400000006000000fa00c682a900c6c2a900f4
:1016d400c6a2a800c6e2a800ca82a900cac2a9007c
:1016e4000080fa00000006000000fa000404200054
:1016f400a41088000d42a9008d20a8007510800058
:10170400c4ff2f0004826200741088000de2a80058
:101714000f42a8000080fa00000006000200fa0050
:10172400000f7800000000007510800004102000f5
:1017340004826200e00f5200fbff3200641080005c
:1017440066026200e60f520003003a001e027800af
:101754008410880003003700f40f20001e0262008a
:10176400841088000080fa00000006000000fa00df
:10177400881f7800000478000f00370018427800b2
:101784000402fb0004007800e4ff0700184278001c
:10179400ea4f520002003a00d0002000dfff0700a9
:1017a40018427800ed4f520002003a00a0002000d9
:1017b400daff07000804e80018427800e04f5200fe
:1017c400eeff3a004f0478000080fa0000000600a3
:1017d4000400fa00100798009e029000843e200046
:1017e400110009008482d80000027800044f7800b8
:1017f4009e4278000582fb000403b00004007800d8
:10180400c6ff07001e4078008082fb0084c12f00c1
:1018140004aab900040278009e02900004824200e7
:10182400140798009e02900044062000110009004d
:101834008482d80000027800044f78009e42780029
:101844000582fb000403b00004007800b3ff070026
:101854001e4078008082fb00c4f92f0004aab9005e
:10186400040278009e02900004824200140798004b
:101874009e029000a4002000110009008482d80078
:1018840000027800044f78009e4278000582fb0035
:101894000403b00004007800a0ff07001e40780095
:1018a4008082fb0064ff2f0004aab90004027800c0
:1018b4009e02900004824200140798001e029000c9
:1018c4000403b0000400780094ff07000080fa00cd
:1018d400000006000000fa0004042000f410880050
:1018e4008f00a800c5108000c4ff2f00048262008e
:1018f400c410880017e2a8001942a8000080fa006a
:10190400000006000200fa00000f7800000000004a
:10191400c51080000410200004826200e00f520011
:10192400fbff3200b410800066026200e60f520032
:1019340003003a001e027800d41088000300370028
:10194400f40f20001e026200d41088000080fa0008
:10195400000006000000fa00881f780000047800e8
:1019640005003700184278000402fb000804e80070
:1019740004007800e3ff070018427800e04f5200ab
:10198400f8ff3a004f0478000080fa0000000600d7
:101994000400fa00100798009e029000843e200084
:1019a400110009008482d80000027800044f7800f6
:1019b4009e4278000582fb000403b0000400780016
:1019c400d0ff07001e4078008082fb0084c12f00f6
:1019d40004aab900040278009e0290000482420026
:1019e400140798009e02900044062000110009008c
:1019f4008482d80000027800044f78009e42780068
:101a04000582fb000403b00004007800bdff07005a
:101a14001e4078008082fb00c4f92f0004aab9009c
:101a2400040278009e029000048242001407980089
:101a34009e029000a4002000110009008482d800b6
:101a440000027800044f78009e4278000582fb0073
:101a54000403b00004007800aaff07001e407800c9
:101a64008082fb0064ff2f0004aab90004027800fe
:101a74009e02900004824200140798001e02900007
:101a84000403b000040078009eff07000080fa0001
:101a9400000006000000fa00d202a900d222a90028
:101aa400240c80000400a1000410a0000420a00065
:101ab400240c8800540c80000400a1000410a00031
:101ac4000420a000540c88008461a8008a61a80046
:101ad4000002eb00140c88000002eb00440c8800a8
:101ae400a40f2000040c8800a40f2000340c8800ec
:101af40013e1a8000080fa00000006000600fa00c6
:101b0400200798002e029000e00f520019003500c3
:101b1400ae02900044062000848f520015003c0061
:101b24002e029000cfa2de000400be00c4fa07001b
:101b34000002be0002002800933f24000400be00ff
:101b440017fb07000002be0002002000832c2400c3
:101b54000400be0053fa07000002be00048fbe005a
:101b64001e00be0095fa07000002be0004027800c1
:101b7400040c88000080fa00000006000600fa0049
:101b8400200798002e029000e00f52001900350043
:101b9400ae02900044062000848f520015003c00e1
:101ba4002e029000cfa2de000400be00a4fa0700bb
:101bb4000002be0002002800933f24000400be007f
:101bc400f7fa07000002be0002002000832c240064
:101bd4000400be0033fa07000002be00048fbe00fa
:101be4001e00be0075fa07000002be000402780061
:101bf400340c88000080fa00000006000000fa009f
:101c0400a1a2a900041580000480a1000490a100f1
:101c140004158800041580000450a0000460a0008e
:101c24000470a00004158800a022a80014158000e8
:101c340004d0a00004e0a00004f0a0001415880063
:101c4400a342a800141580000420a0000430a000c2
:101c54000440a1000450a10014158800a222a90088
:101c6400a202a9002515800004f02100048272005c
:101c740024158800a4e2a8002515800004fc2f0088
:101c840004826200f401b30024158800a782a9002d
:101c9400a682a900341580000400a1000410a1004c
:101ca4000420a1000430a1003415880034158000fc
:101cb4000480a1000490a10004a0a10004b0a1002c
:101cc400341588000002eb0044158800f40020005d
:101cd40054158800a042a8008560a8008d60a80063
:101ce4000080fa00000006000000fa000002eb0089
:101cf4000408880004712200140888000421a90043
:101d04008460a9008c60a80005e1a9000080fa00a5
:101d1400000006000000fa000002eb00340888000e
:101d2400a4002000640888001021a90084c0a90030
:101d34008cc0a80011e1a9000080fa000000060090
:101d44000000fa000002eb0054088800441f200041
:101d5400740888001221a900940880000440a1009e
:101d64000450a1009408880084e0a9008ce0a80035
:101d740013e1a9000080fa00000006000000fa0048
:101d84000002eb00a4088800841a2600d408880006
:101d94001e21a90086a0a9008ea0a8001fe1a90009
:101da4000080fa00000006000000fa000002eb00c8
:101db400c4088800841a2600e40888002021a900a9
:101dc40086c0a9008ec0a80021e1a9000080fa0005
:041dd4000000060005
:020000040000fa
:101dd800000800003c000000000000003c08000073
:101de80002000000020000004600000000000000a1
:020000040000fa
:0200000401f009
:04000000e5bf000058
:020000040000fa
:0200000401f009
:04000400ff7f00007a
:00000001FF
